{
  "contractName": "IPLGame",
  "abi": [
    {
      "constant": true,
      "inputs": [
        {
          "name": "",
          "type": "uint256"
        }
      ],
      "name": "result",
      "outputs": [
        {
          "name": "",
          "type": "string"
        }
      ],
      "payable": false,
      "stateMutability": "view",
      "type": "function"
    },
    {
      "constant": false,
      "inputs": [],
      "name": "kill",
      "outputs": [],
      "payable": false,
      "stateMutability": "nonpayable",
      "type": "function"
    },
    {
      "constant": true,
      "inputs": [],
      "name": "currentGame",
      "outputs": [
        {
          "name": "",
          "type": "uint256"
        }
      ],
      "payable": false,
      "stateMutability": "view",
      "type": "function"
    },
    {
      "constant": true,
      "inputs": [],
      "name": "owner",
      "outputs": [
        {
          "name": "",
          "type": "address"
        }
      ],
      "payable": false,
      "stateMutability": "view",
      "type": "function"
    },
    {
      "constant": true,
      "inputs": [
        {
          "name": "",
          "type": "uint256"
        },
        {
          "name": "",
          "type": "address"
        }
      ],
      "name": "betAmount",
      "outputs": [
        {
          "name": "",
          "type": "uint256"
        }
      ],
      "payable": false,
      "stateMutability": "view",
      "type": "function"
    },
    {
      "constant": true,
      "inputs": [],
      "name": "minimumAmount",
      "outputs": [
        {
          "name": "",
          "type": "uint256"
        }
      ],
      "payable": false,
      "stateMutability": "view",
      "type": "function"
    },
    {
      "anonymous": false,
      "inputs": [
        {
          "indexed": true,
          "name": "matchId",
          "type": "uint256"
        },
        {
          "indexed": true,
          "name": "winner",
          "type": "address"
        },
        {
          "indexed": false,
          "name": "amount",
          "type": "uint256"
        }
      ],
      "name": "Winner",
      "type": "event"
    },
    {
      "anonymous": false,
      "inputs": [
        {
          "indexed": true,
          "name": "bettor",
          "type": "address"
        },
        {
          "indexed": true,
          "name": "matchId",
          "type": "uint256"
        },
        {
          "indexed": false,
          "name": "team",
          "type": "string"
        },
        {
          "indexed": false,
          "name": "amount",
          "type": "uint256"
        }
      ],
      "name": "BetPlaced",
      "type": "event"
    },
    {
      "anonymous": false,
      "inputs": [
        {
          "indexed": true,
          "name": "matchId",
          "type": "uint256"
        },
        {
          "indexed": false,
          "name": "winningTeamId",
          "type": "string"
        },
        {
          "indexed": false,
          "name": "losingTeamId",
          "type": "string"
        }
      ],
      "name": "ResultSet",
      "type": "event"
    },
    {
      "anonymous": false,
      "inputs": [
        {
          "indexed": true,
          "name": "matchId",
          "type": "uint256"
        },
        {
          "indexed": false,
          "name": "winners",
          "type": "address[]"
        }
      ],
      "name": "Winners",
      "type": "event"
    },
    {
      "anonymous": false,
      "inputs": [
        {
          "indexed": true,
          "name": "matchId",
          "type": "uint256"
        },
        {
          "indexed": false,
          "name": "losers",
          "type": "address[]"
        }
      ],
      "name": "Losers",
      "type": "event"
    },
    {
      "constant": false,
      "inputs": [
        {
          "name": "_matchId",
          "type": "uint256"
        },
        {
          "name": "_team",
          "type": "string"
        },
        {
          "name": "_timestamp",
          "type": "uint256"
        }
      ],
      "name": "makeBet",
      "outputs": [],
      "payable": true,
      "stateMutability": "payable",
      "type": "function"
    },
    {
      "constant": true,
      "inputs": [
        {
          "name": "_matchId",
          "type": "uint256"
        },
        {
          "name": "_team",
          "type": "string"
        }
      ],
      "name": "getPredictions",
      "outputs": [
        {
          "name": "",
          "type": "address[]"
        }
      ],
      "payable": false,
      "stateMutability": "view",
      "type": "function"
    },
    {
      "constant": true,
      "inputs": [
        {
          "name": "_matchId",
          "type": "uint256"
        },
        {
          "name": "_team",
          "type": "string"
        }
      ],
      "name": "getPredictionNumber",
      "outputs": [
        {
          "name": "",
          "type": "uint256"
        }
      ],
      "payable": false,
      "stateMutability": "view",
      "type": "function"
    },
    {
      "constant": false,
      "inputs": [
        {
          "name": "_matchId",
          "type": "uint256"
        },
        {
          "name": "_winningTeamId",
          "type": "string"
        },
        {
          "name": "_losingTeamId",
          "type": "string"
        }
      ],
      "name": "setResult",
      "outputs": [],
      "payable": false,
      "stateMutability": "nonpayable",
      "type": "function"
    },
    {
      "constant": true,
      "inputs": [
        {
          "name": "_matchId",
          "type": "uint256"
        }
      ],
      "name": "getResult",
      "outputs": [
        {
          "name": "",
          "type": "string"
        }
      ],
      "payable": false,
      "stateMutability": "view",
      "type": "function"
    },
    {
      "constant": true,
      "inputs": [],
      "name": "playerBalance",
      "outputs": [
        {
          "name": "",
          "type": "uint256"
        }
      ],
      "payable": false,
      "stateMutability": "view",
      "type": "function"
    },
    {
      "constant": true,
      "inputs": [],
      "name": "getCurrentGame",
      "outputs": [
        {
          "name": "",
          "type": "uint256"
        }
      ],
      "payable": false,
      "stateMutability": "view",
      "type": "function"
    }
  ],
  "bytecode": "0x60806040526001805566038d7ea4c68000600255336000806101000a81548173ffffffffffffffffffffffffffffffffffffffff021916908373ffffffffffffffffffffffffffffffffffffffff1602179055506117f8806100626000396000f3006080604052600436106100c5576000357c0100000000000000000000000000000000000000000000000000000000900463ffffffff1680633c594059146100ca57806341c0e1b51461017057806360b663bb14610187578063651f066a146101b257806369e6a3df146101dd57806378624bf2146102965780638da5cb5b14610306578063968d901b1461035d578063995e433914610388578063a0628fa31461042e578063aa278b591461048f578063bb0c829814610557578063f68a670e14610582575b600080fd5b3480156100d657600080fd5b506100f560048036038101908080359060200190929190505050610609565b6040518080602001828103825283818151815260200191508051906020019080838360005b8381101561013557808201518184015260208101905061011a565b50505050905090810190601f1680156101625780820380516001836020036101000a031916815260200191505b509250505060405180910390f35b34801561017c57600080fd5b506101856106b9565b005b34801561019357600080fd5b5061019c6107b8565b6040518082815260200191505060405180910390f35b3480156101be57600080fd5b506101c76107be565b6040518082815260200191505060405180910390f35b3480156101e957600080fd5b5061029460048036038101908080359060200190929190803590602001908201803590602001908080601f0160208091040260200160405190810160405280939291908181526020018383808284378201915050505050509192919290803590602001908201803590602001908080601f01602080910402602001604051908101604052809392919081815260200183838082843782019150505050505091929192905050506107ef565b005b61030460048036038101908080359060200190929190803590602001908201803590602001908080601f016020809104026020016040519081016040528093929190818152602001838380828437820191505050505050919291929080359060200190929190505050611088565b005b34801561031257600080fd5b5061031b611483565b604051808273ffffffffffffffffffffffffffffffffffffffff1673ffffffffffffffffffffffffffffffffffffffff16815260200191505060405180910390f35b34801561036957600080fd5b506103726114a8565b6040518082815260200191505060405180910390f35b34801561039457600080fd5b506103b3600480360381019080803590602001909291905050506114b2565b6040518080602001828103825283818151815260200191508051906020019080838360005b838110156103f35780820151818401526020810190506103d8565b50505050905090810190601f1680156104205780820380516001836020036101000a031916815260200191505b509250505060405180910390f35b34801561043a57600080fd5b5061047960048036038101908080359060200190929190803573ffffffffffffffffffffffffffffffffffffffff169060200190929190505050611567565b6040518082815260200191505060405180910390f35b34801561049b57600080fd5b5061050060048036038101908080359060200190929190803590602001908201803590602001908080601f016020809104026020016040519081016040528093929190818152602001838380828437820191505050505050919291929050505061158c565b6040518080602001828103825283818151815260200191508051906020019060200280838360005b83811015610543578082015181840152602081019050610528565b505050509050019250505060405180910390f35b34801561056357600080fd5b5061056c611697565b6040518082815260200191505060405180910390f35b34801561058e57600080fd5b506105f360048036038101908080359060200190929190803590602001908201803590602001908080601f016020809104026020016040519081016040528093929190818152602001838380828437820191505050505050919291929050505061169d565b6040518082815260200191505060405180910390f35b60056020528060005260406000206000915090508054600181600116156101000203166002900480601f0160208091040260200160405190810160405280929190818152602001828054600181600116156101000203166002900480156106b15780601f10610686576101008083540402835291602001916106b1565b820191906000526020600020905b81548152906001019060200180831161069457829003601f168201915b505050505081565b6000809054906101000a900473ffffffffffffffffffffffffffffffffffffffff168073ffffffffffffffffffffffffffffffffffffffff163373ffffffffffffffffffffffffffffffffffffffff1614151561077e576040517f08c379a00000000000000000000000000000000000000000000000000000000081526004018080602001828103825260158152602001807f53656e646572206e6f7420617574686f72697a6564000000000000000000000081525060200191505060405180910390fd5b6000809054906101000a900473ffffffffffffffffffffffffffffffffffffffff1673ffffffffffffffffffffffffffffffffffffffff16ff5b60015481565b600066038d7ea4c680003373ffffffffffffffffffffffffffffffffffffffff16318115156107e957fe5b04905090565b60606000806000606060008060009054906101000a900473ffffffffffffffffffffffffffffffffffffffff168073ffffffffffffffffffffffffffffffffffffffff163373ffffffffffffffffffffffffffffffffffffffff161415156108bf576040517f08c379a00000000000000000000000000000000000000000000000000000000081526004018080602001828103825260158152602001807f53656e646572206e6f7420617574686f72697a6564000000000000000000000081525060200191505060405180910390fd5b6001548a14151561095e576040517f08c379a00000000000000000000000000000000000000000000000000000000081526004018080602001828103825260258152602001807f4f6e6c79207365742074686520726573756c747320666f722063757272656e7481526020017f2067616d6500000000000000000000000000000000000000000000000000000081525060400191505060405180910390fd5b897f16738a204080ddf3b15dc5afeb7ef32a395ae565e8321ec8632c514cf2961a318a8a604051808060200180602001838103835285818151815260200191508051906020019080838360005b838110156109c65780820151818401526020810190506109ab565b50505050905090810190601f1680156109f35780820380516001836020036101000a031916815260200191505b50838103825284818151815260200191508051906020019080838360005b83811015610a2c578082015181840152602081019050610a11565b50505050905090810190601f168015610a595780820380516001836020036101000a031916815260200191505b5094505050505060405180910390a288600560008c81526020019081526020016000209080519060200190610a8f929190611727565b50600360008b8152602001908152602001600020886040518082805190602001908083835b602083101515610ad95780518252602082019150602081019050602083039250610ab4565b6001836020036101000a0380198251168184511680821785525050505050509050019150509081526020016040518091039020805480602002602001604051908101604052809291908181526020018280548015610b8c57602002820191906000526020600020905b8160009054906101000a900473ffffffffffffffffffffffffffffffffffffffff1673ffffffffffffffffffffffffffffffffffffffff1681526020019060010190808311610b42575b50505050509650897fe6c5b8af70824403121d83d6ef873f80b119c8556214d8795bb0ac3077c55325886040518080602001828103825283818151815260200191508051906020019060200280838360005b83811015610bf9578082015181840152602081019050610bde565b505050509050019250505060405180910390a2600093505b8651841015610c9357600460008b815260200190815260200160002060008886815181101515610c3d57fe5b9060200190602002015173ffffffffffffffffffffffffffffffffffffffff1673ffffffffffffffffffffffffffffffffffffffff16815260200190815260200160002054860195508380600101945050610c11565b6009600a87811515610ca157fe5b04029550600360008b8152602001908152602001600020896040518082805190602001908083835b602083101515610cee5780518252602082019150602081019050602083039250610cc9565b6001836020036101000a0380198251168184511680821785525050505050509050019150509081526020016040518091039020805480602002602001604051908101604052809291908181526020018280548015610da157602002820191906000526020600020905b8160009054906101000a900473ffffffffffffffffffffffffffffffffffffffff1673ffffffffffffffffffffffffffffffffffffffff1681526020019060010190808311610d57575b50505050509250897fb8247eb4ad5e3556594e6b7bb528d9d918110d187eb45383a4af2cd176c72fbd846040518080602001828103825283818151815260200191508051906020019060200280838360005b83811015610e0e578082015181840152602081019050610df3565b505050509050019250505060405180910390a2600093505b8251841015610ea857600460008b815260200190815260200160002060008486815181101515610e5257fe5b9060200190602002015173ffffffffffffffffffffffffffffffffffffffff1673ffffffffffffffffffffffffffffffffffffffff16815260200190815260200160002054850194508380600101945050610e26565b600093505b825184101561106a57600460008b815260200190815260200160002060008486815181101515610ed957fe5b9060200190602002015173ffffffffffffffffffffffffffffffffffffffff1673ffffffffffffffffffffffffffffffffffffffff1681526020019081526020016000205460018688811515610f2b57fe5b04010291508284815181101515610f3e57fe5b9060200190602002015173ffffffffffffffffffffffffffffffffffffffff166108fc839081150290604051600060405180830381858888f19350505050158015610f8d573d6000803e3d6000fd5b508284815181101515610f9c57fe5b9060200190602002015173ffffffffffffffffffffffffffffffffffffffff168a7f1c2ae1f7e99dbbbfe25aac964f3889ea68259d88b74709f53037a6fb930bb02a600460008e81526020019081526020016000206000878981518110151561100157fe5b9060200190602002015173ffffffffffffffffffffffffffffffffffffffff1673ffffffffffffffffffffffffffffffffffffffff1681526020019081526020016000205485036040518082815260200191505060405180910390a38380600101945050610ead565b60016000815480929190600101919050555050505050505050505050565b4281101515611125576040517f08c379a00000000000000000000000000000000000000000000000000000000081526004018080602001828103825260238152602001807f43616e277420706c6163652062657420616674657220616c6c6f77656420746981526020017f6d652e000000000000000000000000000000000000000000000000000000000081525060400191505060405180910390fd5b60025434101515156111c5576040517f08c379a00000000000000000000000000000000000000000000000000000000081526004018080602001828103825260268152602001807f4d696e696d756d20626574206f6620312066696e6e65792063616e206265207081526020017f6c616365642e000000000000000000000000000000000000000000000000000081525060400191505060405180910390fd5b60006004600085815260200190815260200160002060003373ffffffffffffffffffffffffffffffffffffffff1673ffffffffffffffffffffffffffffffffffffffff1681526020019081526020016000205414151561128d576040517f08c379a000000000000000000000000000000000000000000000000000000000815260040180806020018281038252601b8152602001807f416c726561647920706c61636564206120626574206265666f7265000000000081525060200191505060405180910390fd5b60036000848152602001908152602001600020826040518082805190602001908083835b6020831015156112d657805182526020820191506020810190506020830392506112b1565b6001836020036101000a03801982511681845116808217855250505050505090500191505090815260200160405180910390203390806001815401808255809150509060018203906000526020600020016000909192909190916101000a81548173ffffffffffffffffffffffffffffffffffffffff021916908373ffffffffffffffffffffffffffffffffffffffff16021790555050346004600085815260200190815260200160002060003373ffffffffffffffffffffffffffffffffffffffff1673ffffffffffffffffffffffffffffffffffffffff16815260200190815260200160002081905550823373ffffffffffffffffffffffffffffffffffffffff167f02337a2de26093979fec9e25c4d2c7b6a8bd0c2fd9b3214ded831ac4f3d391e784346040518080602001838152602001828103825284818151815260200191508051906020019080838360005b83811015611443578082015181840152602081019050611428565b50505050905090810190601f1680156114705780820380516001836020036101000a031916815260200191505b50935050505060405180910390a3505050565b6000809054906101000a900473ffffffffffffffffffffffffffffffffffffffff1681565b6000600154905090565b6060600560008381526020019081526020016000208054600181600116156101000203166002900480601f01602080910402602001604051908101604052809291908181526020018280546001816001161561010002031660029004801561155b5780601f106115305761010080835404028352916020019161155b565b820191906000526020600020905b81548152906001019060200180831161153e57829003601f168201915b50505050509050919050565b6004602052816000526040600020602052806000526040600020600091509150505481565b606060036000848152602001908152602001600020826040518082805190602001908083835b6020831015156115d757805182526020820191506020810190506020830392506115b2565b6001836020036101000a038019825116818451168082178552505050505050905001915050908152602001604051809103902080548060200260200160405190810160405280929190818152602001828054801561168a57602002820191906000526020600020905b8160009054906101000a900473ffffffffffffffffffffffffffffffffffffffff1673ffffffffffffffffffffffffffffffffffffffff1681526020019060010190808311611640575b5050505050905092915050565b60025481565b600060036000848152602001908152602001600020826040518082805190602001908083835b6020831015156116e857805182526020820191506020810190506020830392506116c3565b6001836020036101000a038019825116818451168082178552505050505050905001915050908152602001604051809103902080549050905092915050565b828054600181600116156101000203166002900490600052602060002090601f016020900481019282601f1061176857805160ff1916838001178555611796565b82800160010185558215611796579182015b8281111561179557825182559160200191906001019061177a565b5b5090506117a391906117a7565b5090565b6117c991905b808211156117c55760008160009055506001016117ad565b5090565b905600a165627a7a72305820dd968b4c13c294b79418021bc201f2a1e84839665c19e99459e831ad1a73e1a70029",
  "source": "pragma solidity ^0.4.23;\r\n\r\nimport \"./Mortal.sol\";\r\n\r\n\r\ncontract IPLGame is Mortal {\r\n\r\n    // State variables\r\n    uint public currentGame = 1;\r\n    uint public minimumAmount = 1 finney;\r\n\r\n    // Mappings\r\n    mapping(uint=>mapping(string=>address[])) predictions;\r\n    mapping(uint=>mapping(address=>uint)) public betAmount;\r\n    mapping(uint=>string) public result;\r\n\r\n    // Events\r\n    event Winner(uint indexed matchId, address indexed winner, uint amount);\r\n    event BetPlaced(address indexed bettor, uint indexed matchId, string team, uint amount);\r\n    event ResultSet(uint indexed matchId, string winningTeamId, string losingTeamId);\r\n    event Winners(uint indexed matchId, address[] winners);\r\n    event Losers(uint indexed matchId, address[] losers);\r\n\r\n    // Functions\r\n    function makeBet(uint _matchId, string _team, uint _timestamp) public payable {\r\n        require((_timestamp < now), \"Can't place bet after allowed time.\");\r\n        require((msg.value >= minimumAmount), \"Minimum bet of 1 finney can be placed.\");\r\n        require(betAmount[_matchId][msg.sender] == 0, \"Already placed a bet before\");\r\n        predictions[_matchId][_team].push(msg.sender);\r\n        betAmount[_matchId][msg.sender] = msg.value;\r\n        emit BetPlaced(msg.sender, _matchId, _team, msg.value);\r\n    }\r\n\r\n    function getPredictions(uint _matchId, string _team) public view returns (address[]) {\r\n        return predictions[_matchId][_team];\r\n    }\r\n\r\n    function getPredictionNumber(uint _matchId, string _team) public view returns (uint) {\r\n        return predictions[_matchId][_team].length;\r\n    }\r\n\r\n    function setResult(uint _matchId, string _winningTeamId, string _losingTeamId) onlyOwner(owner) public {\r\n        require((_matchId == currentGame), \"Only set the results for current game\");\r\n        emit ResultSet(_matchId, _winningTeamId, _losingTeamId);\r\n        result[_matchId] = _winningTeamId;\r\n        address[] memory losers = predictions[_matchId][_losingTeamId];\r\n        emit Losers(_matchId, losers);\r\n        uint toDistribute;\r\n        uint total;\r\n        for(uint i = 0; i < losers.length; i++){\r\n            toDistribute += betAmount[_matchId][losers[i]];\r\n        }\r\n        toDistribute = (toDistribute/10)*9;\r\n\r\n        address[] memory winners = predictions[_matchId][_winningTeamId];\r\n        emit Winners(_matchId, winners);\r\n        for (i = 0; i < winners.length; i++) {\r\n            total += betAmount[_matchId][winners[i]];\r\n        }\r\n        for (i = 0; i < winners.length; i++) {\r\n            uint transferAmount = ((toDistribute/total)+1)*betAmount[_matchId][winners[i]];\r\n            winners[i].transfer(transferAmount);\r\n            emit Winner(_matchId, winners[i], transferAmount-betAmount[_matchId][winners[i]]);\r\n        }\r\n        currentGame++;\r\n    }\r\n\r\n    function getResult(uint _matchId) public view returns (string) {\r\n        return result[_matchId];\r\n    }\r\n\r\n    function playerBalance() public view returns (uint) {\r\n        return msg.sender.balance/(1 finney);\r\n    }\r\n\r\n    function getCurrentGame() public view returns (uint) {\r\n        return currentGame;\r\n    }\r\n\r\n}",
  "sourcePath": "C:\\Users\\shubham.suyal\\Desktop\\IPL\\IPL_vue\\contracts\\IPLGame.sol",
  "compiler": {
    "name": "solc",
    "version": "0.4.23+commit.124ca40d.Emscripten.clang"
  },
  "schemaVersion": "2.0.0",
  "updatedAt": "2018-05-16T10:01:59.899Z"
}